{
  "contractName": "EmojiAt",
  "abi": [
    {
      "inputs": [
        {
          "internalType": "address payable",
          "name": "_wallet",
          "type": "address"
        }
      ],
      "stateMutability": "nonpayable",
      "type": "constructor"
    },
    {
      "anonymous": false,
      "inputs": [
        {
          "indexed": true,
          "internalType": "address",
          "name": "owner",
          "type": "address"
        },
        {
          "indexed": true,
          "internalType": "address",
          "name": "approved",
          "type": "address"
        },
        {
          "indexed": true,
          "internalType": "uint256",
          "name": "tokenId",
          "type": "uint256"
        }
      ],
      "name": "Approval",
      "type": "event"
    },
    {
      "anonymous": false,
      "inputs": [
        {
          "indexed": true,
          "internalType": "address",
          "name": "owner",
          "type": "address"
        },
        {
          "indexed": true,
          "internalType": "address",
          "name": "operator",
          "type": "address"
        },
        {
          "indexed": false,
          "internalType": "bool",
          "name": "approved",
          "type": "bool"
        }
      ],
      "name": "ApprovalForAll",
      "type": "event"
    },
    {
      "anonymous": false,
      "inputs": [
        {
          "indexed": true,
          "internalType": "address",
          "name": "from",
          "type": "address"
        },
        {
          "indexed": true,
          "internalType": "address",
          "name": "to",
          "type": "address"
        },
        {
          "indexed": true,
          "internalType": "uint256",
          "name": "tokenId",
          "type": "uint256"
        }
      ],
      "name": "Transfer",
      "type": "event"
    },
    {
      "inputs": [
        {
          "internalType": "address",
          "name": "to",
          "type": "address"
        },
        {
          "internalType": "uint256",
          "name": "tokenId",
          "type": "uint256"
        }
      ],
      "name": "approve",
      "outputs": [],
      "stateMutability": "nonpayable",
      "type": "function"
    },
    {
      "inputs": [
        {
          "internalType": "address",
          "name": "owner",
          "type": "address"
        }
      ],
      "name": "balanceOf",
      "outputs": [
        {
          "internalType": "uint256",
          "name": "",
          "type": "uint256"
        }
      ],
      "stateMutability": "view",
      "type": "function",
      "constant": true
    },
    {
      "inputs": [
        {
          "internalType": "string",
          "name": "",
          "type": "string"
        }
      ],
      "name": "emojiStrings",
      "outputs": [
        {
          "internalType": "string",
          "name": "",
          "type": "string"
        }
      ],
      "stateMutability": "view",
      "type": "function",
      "constant": true
    },
    {
      "inputs": [
        {
          "internalType": "uint256",
          "name": "tokenId",
          "type": "uint256"
        }
      ],
      "name": "getApproved",
      "outputs": [
        {
          "internalType": "address",
          "name": "",
          "type": "address"
        }
      ],
      "stateMutability": "view",
      "type": "function",
      "constant": true
    },
    {
      "inputs": [
        {
          "internalType": "address",
          "name": "owner",
          "type": "address"
        },
        {
          "internalType": "address",
          "name": "operator",
          "type": "address"
        }
      ],
      "name": "isApprovedForAll",
      "outputs": [
        {
          "internalType": "bool",
          "name": "",
          "type": "bool"
        }
      ],
      "stateMutability": "view",
      "type": "function",
      "constant": true
    },
    {
      "inputs": [],
      "name": "name",
      "outputs": [
        {
          "internalType": "string",
          "name": "",
          "type": "string"
        }
      ],
      "stateMutability": "view",
      "type": "function",
      "constant": true
    },
    {
      "inputs": [
        {
          "internalType": "uint256",
          "name": "tokenId",
          "type": "uint256"
        }
      ],
      "name": "ownerOf",
      "outputs": [
        {
          "internalType": "address",
          "name": "",
          "type": "address"
        }
      ],
      "stateMutability": "view",
      "type": "function",
      "constant": true
    },
    {
      "inputs": [
        {
          "internalType": "address",
          "name": "from",
          "type": "address"
        },
        {
          "internalType": "address",
          "name": "to",
          "type": "address"
        },
        {
          "internalType": "uint256",
          "name": "tokenId",
          "type": "uint256"
        }
      ],
      "name": "safeTransferFrom",
      "outputs": [],
      "stateMutability": "nonpayable",
      "type": "function"
    },
    {
      "inputs": [
        {
          "internalType": "address",
          "name": "from",
          "type": "address"
        },
        {
          "internalType": "address",
          "name": "to",
          "type": "address"
        },
        {
          "internalType": "uint256",
          "name": "tokenId",
          "type": "uint256"
        },
        {
          "internalType": "bytes",
          "name": "_data",
          "type": "bytes"
        }
      ],
      "name": "safeTransferFrom",
      "outputs": [],
      "stateMutability": "nonpayable",
      "type": "function"
    },
    {
      "inputs": [
        {
          "internalType": "address",
          "name": "operator",
          "type": "address"
        },
        {
          "internalType": "bool",
          "name": "approved",
          "type": "bool"
        }
      ],
      "name": "setApprovalForAll",
      "outputs": [],
      "stateMutability": "nonpayable",
      "type": "function"
    },
    {
      "inputs": [
        {
          "internalType": "bytes4",
          "name": "interfaceId",
          "type": "bytes4"
        }
      ],
      "name": "supportsInterface",
      "outputs": [
        {
          "internalType": "bool",
          "name": "",
          "type": "bool"
        }
      ],
      "stateMutability": "view",
      "type": "function",
      "constant": true
    },
    {
      "inputs": [],
      "name": "symbol",
      "outputs": [
        {
          "internalType": "string",
          "name": "",
          "type": "string"
        }
      ],
      "stateMutability": "view",
      "type": "function",
      "constant": true
    },
    {
      "inputs": [
        {
          "internalType": "uint256",
          "name": "tokenId",
          "type": "uint256"
        }
      ],
      "name": "tokenURI",
      "outputs": [
        {
          "internalType": "string",
          "name": "",
          "type": "string"
        }
      ],
      "stateMutability": "view",
      "type": "function",
      "constant": true
    },
    {
      "inputs": [
        {
          "internalType": "address",
          "name": "from",
          "type": "address"
        },
        {
          "internalType": "address",
          "name": "to",
          "type": "address"
        },
        {
          "internalType": "uint256",
          "name": "tokenId",
          "type": "uint256"
        }
      ],
      "name": "transferFrom",
      "outputs": [],
      "stateMutability": "nonpayable",
      "type": "function"
    },
    {
      "inputs": [
        {
          "internalType": "string",
          "name": "emojiString",
          "type": "string"
        },
        {
          "internalType": "string",
          "name": "metaHash",
          "type": "string"
        }
      ],
      "name": "mint",
      "outputs": [],
      "stateMutability": "payable",
      "type": "function",
      "payable": true
    }
  ],
  "bytecode": "0x60806040523480156200001157600080fd5b50604051620030f2380380620030f28339818101604052810190620000379190620001e6565b6040518060400160405280600781526020017f456d6f6a694174000000000000000000000000000000000000000000000000008152506040518060400160405280600781526020017f454d4f4a494154000000000000000000000000000000000000000000000000008152508160009080519060200190620000bb9291906200011f565b508060019080519060200190620000d49291906200011f565b50505080600760006101000a81548173ffffffffffffffffffffffffffffffffffffffff021916908373ffffffffffffffffffffffffffffffffffffffff16021790555050620002c5565b8280546200012d9062000246565b90600052602060002090601f0160209004810192826200015157600085556200019d565b82601f106200016c57805160ff19168380011785556200019d565b828001600101855582156200019d579182015b828111156200019c5782518255916020019190600101906200017f565b5b509050620001ac9190620001b0565b5090565b5b80821115620001cb576000816000905550600101620001b1565b5090565b600081519050620001e081620002ab565b92915050565b600060208284031215620001f957600080fd5b60006200020984828501620001cf565b91505092915050565b60006200021f8262000226565b9050919050565b600073ffffffffffffffffffffffffffffffffffffffff82169050919050565b600060028204905060018216806200025f57607f821691505b602082108114156200027657620002756200027c565b5b50919050565b7f4e487b7100000000000000000000000000000000000000000000000000000000600052602260045260246000fd5b620002b68162000212565b8114620002c257600080fd5b50565b612e1d80620002d56000396000f3fe6080604052600436106100e85760003560e01c806370a082311161008a578063ad3e1e7911610059578063ad3e1e79146102f7578063b88d4fde14610334578063c87b56dd1461035d578063e985e9c51461039a576100e8565b806370a082311461024a5780638aa0fdad1461028757806395d89b41146102a3578063a22cb465146102ce576100e8565b8063095ea7b3116100c6578063095ea7b31461019257806323b872dd146101bb57806342842e0e146101e45780636352211e1461020d576100e8565b806301ffc9a7146100ed57806306fdde031461012a578063081812fc14610155575b600080fd5b3480156100f957600080fd5b50610114600480360381019061010f9190611e06565b6103d7565b60405161012191906122d0565b60405180910390f35b34801561013657600080fd5b5061013f6104b9565b60405161014c91906122eb565b60405180910390f35b34801561016157600080fd5b5061017c60048036038101906101779190611f05565b61054b565b6040516101899190612269565b60405180910390f35b34801561019e57600080fd5b506101b960048036038101906101b49190611dca565b6105d0565b005b3480156101c757600080fd5b506101e260048036038101906101dd9190611cc4565b6106e8565b005b3480156101f057600080fd5b5061020b60048036038101906102069190611cc4565b610748565b005b34801561021957600080fd5b50610234600480360381019061022f9190611f05565b610768565b6040516102419190612269565b60405180910390f35b34801561025657600080fd5b50610271600480360381019061026c9190611c5f565b61081a565b60405161027e919061250d565b60405180910390f35b6102a1600480360381019061029c9190611e99565b6108d2565b005b3480156102af57600080fd5b506102b861099f565b6040516102c591906122eb565b60405180910390f35b3480156102da57600080fd5b506102f560048036038101906102f09190611d8e565b610a31565b005b34801561030357600080fd5b5061031e60048036038101906103199190611e58565b610bb2565b60405161032b91906122eb565b60405180910390f35b34801561034057600080fd5b5061035b60048036038101906103569190611d13565b610c68565b005b34801561036957600080fd5b50610384600480360381019061037f9190611f05565b610cca565b60405161039191906122eb565b60405180910390f35b3480156103a657600080fd5b506103c160048036038101906103bc9190611c88565b610e1c565b6040516103ce91906122d0565b60405180910390f35b60007f80ac58cd000000000000000000000000000000000000000000000000000000007bffffffffffffffffffffffffffffffffffffffffffffffffffffffff1916827bffffffffffffffffffffffffffffffffffffffffffffffffffffffff191614806104a257507f5b5e139f000000000000000000000000000000000000000000000000000000007bffffffffffffffffffffffffffffffffffffffffffffffffffffffff1916827bffffffffffffffffffffffffffffffffffffffffffffffffffffffff1916145b806104b257506104b182610eb0565b5b9050919050565b6060600080546104c890612763565b80601f01602080910402602001604051908101604052809291908181526020018280546104f490612763565b80156105415780601f1061051657610100808354040283529160200191610541565b820191906000526020600020905b81548152906001019060200180831161052457829003601f168201915b5050505050905090565b600061055682610f1a565b610595576040517f08c379a000000000000000000000000000000000000000000000000000000000815260040161058c9061246d565b60405180910390fd5b6004600083815260200190815260200160002060009054906101000a900473ffffffffffffffffffffffffffffffffffffffff169050919050565b60006105db82610768565b90508073ffffffffffffffffffffffffffffffffffffffff168373ffffffffffffffffffffffffffffffffffffffff16141561064c576040517f08c379a0000000000000000000000000000000000000000000000000000000008152600401610643906124cd565b60405180910390fd5b8073ffffffffffffffffffffffffffffffffffffffff1661066b610f86565b73ffffffffffffffffffffffffffffffffffffffff16148061069a575061069981610694610f86565b610e1c565b5b6106d9576040517f08c379a00000000000000000000000000000000000000000000000000000000081526004016106d0906123ad565b60405180910390fd5b6106e38383610f8e565b505050565b6106f96106f3610f86565b82611047565b610738576040517f08c379a000000000000000000000000000000000000000000000000000000000815260040161072f906124ed565b60405180910390fd5b610743838383611125565b505050565b61076383838360405180602001604052806000815250610c68565b505050565b6000806002600084815260200190815260200160002060009054906101000a900473ffffffffffffffffffffffffffffffffffffffff169050600073ffffffffffffffffffffffffffffffffffffffff168173ffffffffffffffffffffffffffffffffffffffff161415610811576040517f08c379a0000000000000000000000000000000000000000000000000000000008152600401610808906123ed565b60405180910390fd5b80915050919050565b60008073ffffffffffffffffffffffffffffffffffffffff168273ffffffffffffffffffffffffffffffffffffffff16141561088b576040517f08c379a0000000000000000000000000000000000000000000000000000000008152600401610882906123cd565b60405180910390fd5b600360008373ffffffffffffffffffffffffffffffffffffffff1673ffffffffffffffffffffffffffffffffffffffff168152602001908152602001600020549050919050565b806008836040516108e3919061222e565b90815260200160405180910390209080519060200190610904929190611a83565b5061090f6009611381565b600061091b6009611397565b905061092733826113a5565b6109318183611573565b600760009054906101000a900473ffffffffffffffffffffffffffffffffffffffff1673ffffffffffffffffffffffffffffffffffffffff166108fc349081150290604051600060405180830381858888f19350505050158015610999573d6000803e3d6000fd5b50505050565b6060600180546109ae90612763565b80601f01602080910402602001604051908101604052809291908181526020018280546109da90612763565b8015610a275780601f106109fc57610100808354040283529160200191610a27565b820191906000526020600020905b815481529060010190602001808311610a0a57829003601f168201915b5050505050905090565b610a39610f86565b73ffffffffffffffffffffffffffffffffffffffff168273ffffffffffffffffffffffffffffffffffffffff161415610aa7576040517f08c379a0000000000000000000000000000000000000000000000000000000008152600401610a9e9061236d565b60405180910390fd5b8060056000610ab4610f86565b73ffffffffffffffffffffffffffffffffffffffff1673ffffffffffffffffffffffffffffffffffffffff16815260200190815260200160002060008473ffffffffffffffffffffffffffffffffffffffff1673ffffffffffffffffffffffffffffffffffffffff16815260200190815260200160002060006101000a81548160ff0219169083151502179055508173ffffffffffffffffffffffffffffffffffffffff16610b61610f86565b73ffffffffffffffffffffffffffffffffffffffff167f17307eab39ab6107e8899845ad3d59bd9653f200f220920489ca2b5937696c3183604051610ba691906122d0565b60405180910390a35050565b6008818051602081018201805184825260208301602085012081835280955050505050506000915090508054610be790612763565b80601f0160208091040260200160405190810160405280929190818152602001828054610c1390612763565b8015610c605780601f10610c3557610100808354040283529160200191610c60565b820191906000526020600020905b815481529060010190602001808311610c4357829003601f168201915b505050505081565b610c79610c73610f86565b83611047565b610cb8576040517f08c379a0000000000000000000000000000000000000000000000000000000008152600401610caf906124ed565b60405180910390fd5b610cc4848484846115e7565b50505050565b6060610cd582610f1a565b610d14576040517f08c379a0000000000000000000000000000000000000000000000000000000008152600401610d0b9061244d565b60405180910390fd5b6000600660008481526020019081526020016000208054610d3490612763565b80601f0160208091040260200160405190810160405280929190818152602001828054610d6090612763565b8015610dad5780601f10610d8257610100808354040283529160200191610dad565b820191906000526020600020905b815481529060010190602001808311610d9057829003601f168201915b505050505090506000610dbe611643565b9050600081511415610dd4578192505050610e17565b600082511115610e09578082604051602001610df1929190612245565b60405160208183030381529060405292505050610e17565b610e1284611680565b925050505b919050565b6000600560008473ffffffffffffffffffffffffffffffffffffffff1673ffffffffffffffffffffffffffffffffffffffff16815260200190815260200160002060008373ffffffffffffffffffffffffffffffffffffffff1673ffffffffffffffffffffffffffffffffffffffff16815260200190815260200160002060009054906101000a900460ff16905092915050565b60007f01ffc9a7000000000000000000000000000000000000000000000000000000007bffffffffffffffffffffffffffffffffffffffffffffffffffffffff1916827bffffffffffffffffffffffffffffffffffffffffffffffffffffffff1916149050919050565b60008073ffffffffffffffffffffffffffffffffffffffff166002600084815260200190815260200160002060009054906101000a900473ffffffffffffffffffffffffffffffffffffffff1673ffffffffffffffffffffffffffffffffffffffff1614159050919050565b600033905090565b816004600083815260200190815260200160002060006101000a81548173ffffffffffffffffffffffffffffffffffffffff021916908373ffffffffffffffffffffffffffffffffffffffff160217905550808273ffffffffffffffffffffffffffffffffffffffff1661100183610768565b73ffffffffffffffffffffffffffffffffffffffff167f8c5be1e5ebec7d5bd14f71427d1e84f3dd0314c0f7b2291e5b200ac8c7c3b92560405160405180910390a45050565b600061105282610f1a565b611091576040517f08c379a00000000000000000000000000000000000000000000000000000000081526004016110889061238d565b60405180910390fd5b600061109c83610768565b90508073ffffffffffffffffffffffffffffffffffffffff168473ffffffffffffffffffffffffffffffffffffffff16148061110b57508373ffffffffffffffffffffffffffffffffffffffff166110f38461054b565b73ffffffffffffffffffffffffffffffffffffffff16145b8061111c575061111b8185610e1c565b5b91505092915050565b8273ffffffffffffffffffffffffffffffffffffffff1661114582610768565b73ffffffffffffffffffffffffffffffffffffffff161461119b576040517f08c379a00000000000000000000000000000000000000000000000000000000081526004016111929061248d565b60405180910390fd5b600073ffffffffffffffffffffffffffffffffffffffff168273ffffffffffffffffffffffffffffffffffffffff16141561120b576040517f08c379a00000000000000000000000000000000000000000000000000000000081526004016112029061234d565b60405180910390fd5b611216838383611727565b611221600082610f8e565b6001600360008573ffffffffffffffffffffffffffffffffffffffff1673ffffffffffffffffffffffffffffffffffffffff16815260200190815260200160002060008282546112719190612679565b925050819055506001600360008473ffffffffffffffffffffffffffffffffffffffff1673ffffffffffffffffffffffffffffffffffffffff16815260200190815260200160002060008282546112c891906125f2565b92505081905550816002600083815260200190815260200160002060006101000a81548173ffffffffffffffffffffffffffffffffffffffff021916908373ffffffffffffffffffffffffffffffffffffffff160217905550808273ffffffffffffffffffffffffffffffffffffffff168473ffffffffffffffffffffffffffffffffffffffff167fddf252ad1be2c89b69c2b068fc378daa952ba7f163c4a11628f55a4df523b3ef60405160405180910390a4505050565b6001816000016000828254019250508190555050565b600081600001549050919050565b600073ffffffffffffffffffffffffffffffffffffffff168273ffffffffffffffffffffffffffffffffffffffff161415611415576040517f08c379a000000000000000000000000000000000000000000000000000000000815260040161140c9061242d565b60405180910390fd5b61141e81610f1a565b1561145e576040517f08c379a00000000000000000000000000000000000000000000000000000000081526004016114559061232d565b60405180910390fd5b61146a60008383611727565b6001600360008473ffffffffffffffffffffffffffffffffffffffff1673ffffffffffffffffffffffffffffffffffffffff16815260200190815260200160002060008282546114ba91906125f2565b92505081905550816002600083815260200190815260200160002060006101000a81548173ffffffffffffffffffffffffffffffffffffffff021916908373ffffffffffffffffffffffffffffffffffffffff160217905550808273ffffffffffffffffffffffffffffffffffffffff16600073ffffffffffffffffffffffffffffffffffffffff167fddf252ad1be2c89b69c2b068fc378daa952ba7f163c4a11628f55a4df523b3ef60405160405180910390a45050565b61157c82610f1a565b6115bb576040517f08c379a00000000000000000000000000000000000000000000000000000000081526004016115b29061240d565b60405180910390fd5b806006600084815260200190815260200160002090805190602001906115e2929190611a83565b505050565b6115f2848484611125565b6115fe8484848461172c565b61163d576040517f08c379a00000000000000000000000000000000000000000000000000000000081526004016116349061230d565b60405180910390fd5b50505050565b60606040518060400160405280600781526020017f697066733a2f2f00000000000000000000000000000000000000000000000000815250905090565b606061168b82610f1a565b6116ca576040517f08c379a00000000000000000000000000000000000000000000000000000000081526004016116c1906124ad565b60405180910390fd5b60006116d4611643565b905060008151116116f4576040518060200160405280600081525061171f565b806116fe846118c3565b60405160200161170f929190612245565b6040516020818303038152906040525b915050919050565b505050565b600061174d8473ffffffffffffffffffffffffffffffffffffffff16611a70565b156118b6578373ffffffffffffffffffffffffffffffffffffffff1663150b7a02611776610f86565b8786866040518563ffffffff1660e01b81526004016117989493929190612284565b602060405180830381600087803b1580156117b257600080fd5b505af19250505080156117e357506040513d601f19601f820116820180604052508101906117e09190611e2f565b60015b611866573d8060008114611813576040519150601f19603f3d011682016040523d82523d6000602084013e611818565b606091505b5060008151141561185e576040517f08c379a00000000000000000000000000000000000000000000000000000000081526004016118559061230d565b60405180910390fd5b805181602001fd5b63150b7a0260e01b7bffffffffffffffffffffffffffffffffffffffffffffffffffffffff1916817bffffffffffffffffffffffffffffffffffffffffffffffffffffffff1916149150506118bb565b600190505b949350505050565b6060600082141561190b576040518060400160405280600181526020017f30000000000000000000000000000000000000000000000000000000000000008152509050611a6b565b600082905060005b6000821461193d578080611926906127c6565b915050600a826119369190612648565b9150611913565b60008167ffffffffffffffff81111561197f577f4e487b7100000000000000000000000000000000000000000000000000000000600052604160045260246000fd5b6040519080825280601f01601f1916602001820160405280156119b15781602001600182028036833780820191505090505b5090505b60008514611a64576001826119ca9190612679565b9150600a856119d9919061280f565b60306119e591906125f2565b60f81b818381518110611a21577f4e487b7100000000000000000000000000000000000000000000000000000000600052603260045260246000fd5b60200101907effffffffffffffffffffffffffffffffffffffffffffffffffffffffffffff1916908160001a905350600a85611a5d9190612648565b94506119b5565b8093505050505b919050565b600080823b905060008111915050919050565b828054611a8f90612763565b90600052602060002090601f016020900481019282611ab15760008555611af8565b82601f10611aca57805160ff1916838001178555611af8565b82800160010185558215611af8579182015b82811115611af7578251825591602001919060010190611adc565b5b509050611b059190611b09565b5090565b5b80821115611b22576000816000905550600101611b0a565b5090565b6000611b39611b348461254d565b612528565b905082815260208101848484011115611b5157600080fd5b611b5c848285612721565b509392505050565b6000611b77611b728461257e565b612528565b905082815260208101848484011115611b8f57600080fd5b611b9a848285612721565b509392505050565b600081359050611bb181612d8b565b92915050565b600081359050611bc681612da2565b92915050565b600081359050611bdb81612db9565b92915050565b600081519050611bf081612db9565b92915050565b600082601f830112611c0757600080fd5b8135611c17848260208601611b26565b91505092915050565b600082601f830112611c3157600080fd5b8135611c41848260208601611b64565b91505092915050565b600081359050611c5981612dd0565b92915050565b600060208284031215611c7157600080fd5b6000611c7f84828501611ba2565b91505092915050565b60008060408385031215611c9b57600080fd5b6000611ca985828601611ba2565b9250506020611cba85828601611ba2565b9150509250929050565b600080600060608486031215611cd957600080fd5b6000611ce786828701611ba2565b9350506020611cf886828701611ba2565b9250506040611d0986828701611c4a565b9150509250925092565b60008060008060808587031215611d2957600080fd5b6000611d3787828801611ba2565b9450506020611d4887828801611ba2565b9350506040611d5987828801611c4a565b925050606085013567ffffffffffffffff811115611d7657600080fd5b611d8287828801611bf6565b91505092959194509250565b60008060408385031215611da157600080fd5b6000611daf85828601611ba2565b9250506020611dc085828601611bb7565b9150509250929050565b60008060408385031215611ddd57600080fd5b6000611deb85828601611ba2565b9250506020611dfc85828601611c4a565b9150509250929050565b600060208284031215611e1857600080fd5b6000611e2684828501611bcc565b91505092915050565b600060208284031215611e4157600080fd5b6000611e4f84828501611be1565b91505092915050565b600060208284031215611e6a57600080fd5b600082013567ffffffffffffffff811115611e8457600080fd5b611e9084828501611c20565b91505092915050565b60008060408385031215611eac57600080fd5b600083013567ffffffffffffffff811115611ec657600080fd5b611ed285828601611c20565b925050602083013567ffffffffffffffff811115611eef57600080fd5b611efb85828601611c20565b9150509250929050565b600060208284031215611f1757600080fd5b6000611f2584828501611c4a565b91505092915050565b611f37816126ad565b82525050565b611f46816126bf565b82525050565b6000611f57826125af565b611f6181856125c5565b9350611f71818560208601612730565b611f7a816128fc565b840191505092915050565b6000611f90826125ba565b611f9a81856125d6565b9350611faa818560208601612730565b611fb3816128fc565b840191505092915050565b6000611fc9826125ba565b611fd381856125e7565b9350611fe3818560208601612730565b80840191505092915050565b6000611ffc6032836125d6565b91506120078261290d565b604082019050919050565b600061201f601c836125d6565b915061202a8261295c565b602082019050919050565b60006120426024836125d6565b915061204d82612985565b604082019050919050565b60006120656019836125d6565b9150612070826129d4565b602082019050919050565b6000612088602c836125d6565b9150612093826129fd565b604082019050919050565b60006120ab6038836125d6565b91506120b682612a4c565b604082019050919050565b60006120ce602a836125d6565b91506120d982612a9b565b604082019050919050565b60006120f16029836125d6565b91506120fc82612aea565b604082019050919050565b6000612114602e836125d6565b915061211f82612b39565b604082019050919050565b60006121376020836125d6565b915061214282612b88565b602082019050919050565b600061215a6031836125d6565b915061216582612bb1565b604082019050919050565b600061217d602c836125d6565b915061218882612c00565b604082019050919050565b60006121a06029836125d6565b91506121ab82612c4f565b604082019050919050565b60006121c3602f836125d6565b91506121ce82612c9e565b604082019050919050565b60006121e66021836125d6565b91506121f182612ced565b604082019050919050565b60006122096031836125d6565b915061221482612d3c565b604082019050919050565b61222881612717565b82525050565b600061223a8284611fbe565b915081905092915050565b60006122518285611fbe565b915061225d8284611fbe565b91508190509392505050565b600060208201905061227e6000830184611f2e565b92915050565b60006080820190506122996000830187611f2e565b6122a66020830186611f2e565b6122b3604083018561221f565b81810360608301526122c58184611f4c565b905095945050505050565b60006020820190506122e56000830184611f3d565b92915050565b600060208201905081810360008301526123058184611f85565b905092915050565b6000602082019050818103600083015261232681611fef565b9050919050565b6000602082019050818103600083015261234681612012565b9050919050565b6000602082019050818103600083015261236681612035565b9050919050565b6000602082019050818103600083015261238681612058565b9050919050565b600060208201905081810360008301526123a68161207b565b9050919050565b600060208201905081810360008301526123c68161209e565b9050919050565b600060208201905081810360008301526123e6816120c1565b9050919050565b60006020820190508181036000830152612406816120e4565b9050919050565b6000602082019050818103600083015261242681612107565b9050919050565b600060208201905081810360008301526124468161212a565b9050919050565b600060208201905081810360008301526124668161214d565b9050919050565b6000602082019050818103600083015261248681612170565b9050919050565b600060208201905081810360008301526124a681612193565b9050919050565b600060208201905081810360008301526124c6816121b6565b9050919050565b600060208201905081810360008301526124e6816121d9565b9050919050565b60006020820190508181036000830152612506816121fc565b9050919050565b6000602082019050612522600083018461221f565b92915050565b6000612532612543565b905061253e8282612795565b919050565b6000604051905090565b600067ffffffffffffffff821115612568576125676128cd565b5b612571826128fc565b9050602081019050919050565b600067ffffffffffffffff821115612599576125986128cd565b5b6125a2826128fc565b9050602081019050919050565b600081519050919050565b600081519050919050565b600082825260208201905092915050565b600082825260208201905092915050565b600081905092915050565b60006125fd82612717565b915061260883612717565b9250827fffffffffffffffffffffffffffffffffffffffffffffffffffffffffffffffff0382111561263d5761263c612840565b5b828201905092915050565b600061265382612717565b915061265e83612717565b92508261266e5761266d61286f565b5b828204905092915050565b600061268482612717565b915061268f83612717565b9250828210156126a2576126a1612840565b5b828203905092915050565b60006126b8826126f7565b9050919050565b60008115159050919050565b60007fffffffff0000000000000000000000000000000000000000000000000000000082169050919050565b600073ffffffffffffffffffffffffffffffffffffffff82169050919050565b6000819050919050565b82818337600083830152505050565b60005b8381101561274e578082015181840152602081019050612733565b8381111561275d576000848401525b50505050565b6000600282049050600182168061277b57607f821691505b6020821081141561278f5761278e61289e565b5b50919050565b61279e826128fc565b810181811067ffffffffffffffff821117156127bd576127bc6128cd565b5b80604052505050565b60006127d182612717565b91507fffffffffffffffffffffffffffffffffffffffffffffffffffffffffffffffff82141561280457612803612840565b5b600182019050919050565b600061281a82612717565b915061282583612717565b9250826128355761283461286f565b5b828206905092915050565b7f4e487b7100000000000000000000000000000000000000000000000000000000600052601160045260246000fd5b7f4e487b7100000000000000000000000000000000000000000000000000000000600052601260045260246000fd5b7f4e487b7100000000000000000000000000000000000000000000000000000000600052602260045260246000fd5b7f4e487b7100000000000000000000000000000000000000000000000000000000600052604160045260246000fd5b6000601f19601f8301169050919050565b7f4552433732313a207472616e7366657220746f206e6f6e20455243373231526560008201527f63656976657220696d706c656d656e7465720000000000000000000000000000602082015250565b7f4552433732313a20746f6b656e20616c7265616479206d696e74656400000000600082015250565b7f4552433732313a207472616e7366657220746f20746865207a65726f2061646460008201527f7265737300000000000000000000000000000000000000000000000000000000602082015250565b7f4552433732313a20617070726f766520746f2063616c6c657200000000000000600082015250565b7f4552433732313a206f70657261746f7220717565727920666f72206e6f6e657860008201527f697374656e7420746f6b656e0000000000000000000000000000000000000000602082015250565b7f4552433732313a20617070726f76652063616c6c6572206973206e6f74206f7760008201527f6e6572206e6f7220617070726f76656420666f7220616c6c0000000000000000602082015250565b7f4552433732313a2062616c616e636520717565727920666f7220746865207a6560008201527f726f206164647265737300000000000000000000000000000000000000000000602082015250565b7f4552433732313a206f776e657220717565727920666f72206e6f6e657869737460008201527f656e7420746f6b656e0000000000000000000000000000000000000000000000602082015250565b7f45524337323155524953746f726167653a2055524920736574206f66206e6f6e60008201527f6578697374656e7420746f6b656e000000000000000000000000000000000000602082015250565b7f4552433732313a206d696e7420746f20746865207a65726f2061646472657373600082015250565b7f45524337323155524953746f726167653a2055524920717565727920666f722060008201527f6e6f6e6578697374656e7420746f6b656e000000000000000000000000000000602082015250565b7f4552433732313a20617070726f76656420717565727920666f72206e6f6e657860008201527f697374656e7420746f6b656e0000000000000000000000000000000000000000602082015250565b7f4552433732313a207472616e73666572206f6620746f6b656e2074686174206960008201527f73206e6f74206f776e0000000000000000000000000000000000000000000000602082015250565b7f4552433732314d657461646174613a2055524920717565727920666f72206e6f60008201527f6e6578697374656e7420746f6b656e0000000000000000000000000000000000602082015250565b7f4552433732313a20617070726f76616c20746f2063757272656e74206f776e6560008201527f7200000000000000000000000000000000000000000000000000000000000000602082015250565b7f4552433732313a207472616e736665722063616c6c6572206973206e6f74206f60008201527f776e6572206e6f7220617070726f766564000000000000000000000000000000602082015250565b612d94816126ad565b8114612d9f57600080fd5b50565b612dab816126bf565b8114612db657600080fd5b50565b612dc2816126cb565b8114612dcd57600080fd5b50565b612dd981612717565b8114612de457600080fd5b5056fea26469706673582212209a7e7b7598a70376c9204cd779fafe306a6cb989e8b92190a7feccb8f9b708f264736f6c63430008040033",
  "immutableReferences": {},
  "source": "// contracts/EmojiAt.sol\r\n// SPDX-License-Identifier: MIT\r\npragma solidity ^0.8.0;\r\n\r\nimport \"@openzeppelin/contracts/token/ERC721/extensions/ERC721URIStorage.sol\";\r\nimport \"@openzeppelin/contracts/utils/Counters.sol\";\r\n\r\ncontract EmojiAt is ERC721URIStorage {\r\n    address payable wallet;\r\n\r\n    mapping (string => string) public emojiStrings;\r\n    using Counters for Counters.Counter;\r\n    Counters.Counter private _tokenIds;\r\n\r\n    constructor(address payable _wallet) ERC721(\"EmojiAt\", \"EMOJIAT\") {\r\n        wallet = _wallet;\r\n    }\r\n\r\n    function _baseURI() internal pure override returns (string memory) {\r\n        return \"ipfs://\";\r\n    }\r\n\r\n    function mint(string memory emojiString, string memory metaHash) public payable {           \r\n        emojiStrings[emojiString] = metaHash;\r\n        \r\n        _tokenIds.increment();\r\n\r\n        uint256 newItemId = _tokenIds.current();\r\n        \r\n        _mint(msg.sender, newItemId);\r\n        \r\n        _setTokenURI(newItemId, metaHash);\r\n        wallet.transfer(msg.value);\r\n    }\r\n}",
  "sourcePath": "C:/Users/dev/Desktop/NFTFun/next-mymojis/contracts/EmojiAt.sol",
  "compiler": {
    "name": "solc",
    "version": "0.8.4+commit.c7e474f2.Emscripten.clang"
  },
  "schemaVersion": "3.4.0",
  "updatedAt": "2021-04-24T00:42:13.634Z",
  "networkType": "ethereum",
  "devdoc": {
    "kind": "dev",
    "methods": {
      "approve(address,uint256)": {
        "details": "See {IERC721-approve}."
      },
      "balanceOf(address)": {
        "details": "See {IERC721-balanceOf}."
      },
      "getApproved(uint256)": {
        "details": "See {IERC721-getApproved}."
      },
      "isApprovedForAll(address,address)": {
        "details": "See {IERC721-isApprovedForAll}."
      },
      "name()": {
        "details": "See {IERC721Metadata-name}."
      },
      "ownerOf(uint256)": {
        "details": "See {IERC721-ownerOf}."
      },
      "safeTransferFrom(address,address,uint256)": {
        "details": "See {IERC721-safeTransferFrom}."
      },
      "safeTransferFrom(address,address,uint256,bytes)": {
        "details": "See {IERC721-safeTransferFrom}."
      },
      "setApprovalForAll(address,bool)": {
        "details": "See {IERC721-setApprovalForAll}."
      },
      "supportsInterface(bytes4)": {
        "details": "See {IERC165-supportsInterface}."
      },
      "symbol()": {
        "details": "See {IERC721Metadata-symbol}."
      },
      "tokenURI(uint256)": {
        "details": "See {IERC721Metadata-tokenURI}."
      },
      "transferFrom(address,address,uint256)": {
        "details": "See {IERC721-transferFrom}."
      }
    },
    "version": 1
  },
  "userdoc": {
    "kind": "user",
    "methods": {},
    "version": 1
  }
}